{
  "transactions": [
    {
      "hash": "0x49cb12750f0f6c7ab9653618b3982854e579cd61a1ee72f5831ab9e82428d396",
      "transactionType": "CALL",
      "contractName": null,
      "contractAddress": "0xa5DE8993c063fEfeCCE05e41effF2B17fF8F9DF7",
      "function": "setMoneeToken(address)",
      "arguments": [
        "0x58F994D52A56A864Baf0123fA57Fe1336fD1C01b"
      ],
      "transaction": {
        "type": "0x02",
        "from": "0x6faff29226219756aa40ce648dbc65fb41de5f72",
        "to": "0xa5de8993c063fefecce05e41efff2b17ff8f9df7",
        "gas": "0xfaf7",
        "value": "0x0",
        "data": "0x4479425100000000000000000000000058f994d52a56a864baf0123fa57fe1336fd1c01b",
        "nonce": "0x5b",
        "accessList": []
      },
      "additionalContracts": [],
      "isFixedGasLimit": false
    },
    {
      "hash": "0xdc135600ef92cb72de7e64e129e007e1c99297b18c24f1fea4adb90e3afc7b1d",
      "transactionType": "CALL",
      "contractName": null,
      "contractAddress": "0xa5DE8993c063fEfeCCE05e41effF2B17fF8F9DF7",
      "function": "requestRandomWords()",
      "arguments": [],
      "transaction": {
        "type": "0x02",
        "from": "0x6faff29226219756aa40ce648dbc65fb41de5f72",
        "to": "0xa5de8993c063fefecce05e41efff2b17ff8f9df7",
        "gas": "0x363f9",
        "value": "0x0",
        "data": "0xe0c86289",
        "nonce": "0x5c",
        "accessList": []
      },
      "additionalContracts": [],
      "isFixedGasLimit": false
    }
  ],
  "receipts": [],
  "libraries": [],
  "pending": [
    "0x49cb12750f0f6c7ab9653618b3982854e579cd61a1ee72f5831ab9e82428d396",
    "0xdc135600ef92cb72de7e64e129e007e1c99297b18c24f1fea4adb90e3afc7b1d"
  ],
  "returns": {},
  "timestamp": 1718815679,
  "chain": 1001,
  "multi": false,
  "commit": "d11a790"
}