{
  "transactions": [
    {
      "hash": "0x49cb12750f0f6c7ab9653618b3982854e579cd61a1ee72f5831ab9e82428d396",
      "transactionType": "CALL",
      "contractName": null,
      "contractAddress": "0xa5DE8993c063fEfeCCE05e41effF2B17fF8F9DF7",
      "function": "setMoneeToken(address)",
      "arguments": [
        "0x58F994D52A56A864Baf0123fA57Fe1336fD1C01b"
      ],
      "transaction": {
        "type": "0x02",
        "from": "0x6faff29226219756aa40ce648dbc65fb41de5f72",
        "to": "0xa5de8993c063fefecce05e41efff2b17ff8f9df7",
        "gas": "0xfaf7",
        "value": "0x0",
        "data": "0x4479425100000000000000000000000058f994d52a56a864baf0123fa57fe1336fd1c01b",
        "nonce": "0x5b",
        "accessList": []
      },
      "additionalContracts": [],
      "isFixedGasLimit": false
    },
    {
      "hash": "0xdc135600ef92cb72de7e64e129e007e1c99297b18c24f1fea4adb90e3afc7b1d",
      "transactionType": "CALL",
      "contractName": null,
      "contractAddress": "0xa5DE8993c063fEfeCCE05e41effF2B17fF8F9DF7",
      "function": "requestRandomWords()",
      "arguments": [],
      "transaction": {
        "type": "0x02",
        "from": "0x6faff29226219756aa40ce648dbc65fb41de5f72",
        "to": "0xa5de8993c063fefecce05e41efff2b17ff8f9df7",
        "gas": "0x363f9",
        "value": "0x0",
        "data": "0xe0c86289",
        "nonce": "0x5c",
        "accessList": []
      },
      "additionalContracts": [],
      "isFixedGasLimit": false
    }
  ],
  "receipts": [
    {
      "transactionHash": "0x49cb12750f0f6c7ab9653618b3982854e579cd61a1ee72f5831ab9e82428d396",
      "transactionIndex": "0x0",
      "blockHash": "0xd1fc82d6c78ef2e948b908ba200dc2c232e6548061d5b3d39fa7f452738b92c3",
      "blockNumber": "0x95f3489",
      "from": "0x6FaFF29226219756aa40CE648dbc65FB41DE5F72",
      "to": "0xa5DE8993c063fEfeCCE05e41effF2B17fF8F9DF7",
      "cumulativeGasUsed": "0xb7fa",
      "gasUsed": "0xb7fa",
      "contractAddress": null,
      "logs": [],
      "status": "0x1",
      "logsBloom": "0x00000000000000000000000000000000000000000000000000000000000000000000000000000000000000000000000000000000000000000000000000000000000000000000000000000000000000000000000000000000000000000000000000000000000000000000000000000000000000000000000000000000000000000000000000000000000000000000000000000000000000000000000000000000000000000000000000000000000000000000000000000000000000000000000000000000000000000000000000000000000000000000000000000000000000000000000000000000000000000000000000000000000000000000000000000000",
      "type": "0x2",
      "effectiveGasPrice": "0x684ee1800"
    },
    {
      "transactionHash": "0xdc135600ef92cb72de7e64e129e007e1c99297b18c24f1fea4adb90e3afc7b1d",
      "transactionIndex": "0x0",
      "blockHash": "0xb29a0ca61b4663de7943388e0dc857e52b7cfabab7cf89cf73b9d07df04086cd",
      "blockNumber": "0x95f348a",
      "from": "0x6FaFF29226219756aa40CE648dbc65FB41DE5F72",
      "to": "0xa5DE8993c063fEfeCCE05e41effF2B17fF8F9DF7",
      "cumulativeGasUsed": "0x275b6",
      "gasUsed": "0x275b6",
      "contractAddress": null,
      "logs": [
        {
          "address": "0xDA8c0A00A372503aa6EC80f9b29Cc97C454bE499",
          "topics": [
            "0x88c0534cab9d18b5e2f8fb9a9d142426403b507f2343cfaafe6cfe45e9900e30",
            "0xd9af33106d664a53cb9946df5cd81a30695f5b72224ee64e798b278af812779c",
            "0x0000000000000000000000000000000000000000000000000000000000000309",
            "0x000000000000000000000000a5de8993c063fefecce05e41efff2b17ff8f9df7"
          ],
          "data": "0x1b3de87f025a64a68b8c8d20e96a715642ffc5dc4c2d5d8c57d22497326c70d904237e5b2b76cddb6b2d90be390a3755ba456bc43747f6b0987f8a39ca58605c00000000000000000000000000000000000000000000000000000000001e848000000000000000000000000000000000000000000000000000000000000000010000000000000000000000000000000000000000000000000000000000000000",
          "blockHash": "0xb29a0ca61b4663de7943388e0dc857e52b7cfabab7cf89cf73b9d07df04086cd",
          "blockNumber": "0x95f348a",
          "transactionHash": "0xdc135600ef92cb72de7e64e129e007e1c99297b18c24f1fea4adb90e3afc7b1d",
          "transactionIndex": "0x0",
          "logIndex": "0x0",
          "removed": false
        }
      ],
      "status": "0x1",
      "logsBloom": "0x00000000000000000000000000200000084000000000000000000000000000000001000000000000000000000020080000000000000000000000000000100000000000000000000000001000000000000000000000000000000000000000000000000000000000000000000000008000000000000004000000000000000000000000000000000000000000000000040000000000000000000000000000800000000000000000000000000000000000000000000000000000000000020000000000000000000000000000000000000000000000000000000000000000000000000000000000000000000100000000000000000000000002000000000000000000",
      "type": "0x2",
      "effectiveGasPrice": "0x684ee1800"
    }
  ],
  "libraries": [],
  "pending": [],
  "returns": {},
  "timestamp": 1718815686,
  "chain": 1001,
  "multi": false,
  "commit": "d11a790"
}